{
  "contractName": "Campaign",
  "abi": [
    {
      "inputs": [
        {
          "internalType": "string",
          "name": "_name",
          "type": "string"
        },
        {
          "internalType": "string",
          "name": "_imageURL",
          "type": "string"
        },
        {
          "internalType": "string",
          "name": "_description",
          "type": "string"
        },
        {
          "internalType": "string",
          "name": "_descriptionURL",
          "type": "string"
        },
        {
          "internalType": "uint256",
          "name": "_goalAmount",
          "type": "uint256"
        },
        {
          "internalType": "uint256",
          "name": "_expiresInDays",
          "type": "uint256"
        },
        {
          "internalType": "uint256",
          "name": "_refundPeriodInDays",
          "type": "uint256"
        },
        {
          "internalType": "address payable",
          "name": "_beneficiary",
          "type": "address"
        },
        {
          "internalType": "address",
          "name": "_custodian",
          "type": "address"
        }
      ],
      "stateMutability": "nonpayable",
      "type": "constructor"
    },
    {
      "anonymous": false,
      "inputs": [
        {
          "indexed": false,
          "internalType": "uint256",
          "name": "id",
          "type": "uint256"
        },
        {
          "indexed": false,
          "internalType": "address",
          "name": "donor",
          "type": "address"
        },
        {
          "indexed": false,
          "internalType": "uint256",
          "name": "amount",
          "type": "uint256"
        },
        {
          "indexed": false,
          "internalType": "uint256",
          "name": "timestamp",
          "type": "uint256"
        }
      ],
      "name": "DonationReceived",
      "type": "event"
    },
    {
      "anonymous": false,
      "inputs": [
        {
          "indexed": true,
          "internalType": "address",
          "name": "previousOwner",
          "type": "address"
        },
        {
          "indexed": true,
          "internalType": "address",
          "name": "newOwner",
          "type": "address"
        }
      ],
      "name": "OwnershipTransferred",
      "type": "event"
    },
    {
      "anonymous": false,
      "inputs": [
        {
          "indexed": false,
          "internalType": "address",
          "name": "donor",
          "type": "address"
        },
        {
          "indexed": false,
          "internalType": "uint256",
          "name": "amount",
          "type": "uint256"
        }
      ],
      "name": "RefundReceived",
      "type": "event"
    },
    {
      "anonymous": false,
      "inputs": [
        {
          "indexed": false,
          "internalType": "address",
          "name": "beneficiary",
          "type": "address"
        },
        {
          "indexed": false,
          "internalType": "uint256",
          "name": "amount",
          "type": "uint256"
        }
      ],
      "name": "Withdraw",
      "type": "event"
    },
    {
      "inputs": [],
      "name": "beneficiary",
      "outputs": [
        {
          "internalType": "address payable",
          "name": "",
          "type": "address"
        }
      ],
      "stateMutability": "view",
      "type": "function"
    },
    {
      "inputs": [],
      "name": "campaignStartTime",
      "outputs": [
        {
          "internalType": "uint256",
          "name": "",
          "type": "uint256"
        }
      ],
      "stateMutability": "view",
      "type": "function"
    },
    {
      "inputs": [],
      "name": "description",
      "outputs": [
        {
          "internalType": "string",
          "name": "",
          "type": "string"
        }
      ],
      "stateMutability": "view",
      "type": "function"
    },
    {
      "inputs": [],
      "name": "descriptionURL",
      "outputs": [
        {
          "internalType": "string",
          "name": "",
          "type": "string"
        }
      ],
      "stateMutability": "view",
      "type": "function"
    },
    {
      "inputs": [
        {
          "internalType": "address",
          "name": "",
          "type": "address"
        }
      ],
      "name": "donations",
      "outputs": [
        {
          "internalType": "uint256",
          "name": "id",
          "type": "uint256"
        },
        {
          "internalType": "address",
          "name": "sender",
          "type": "address"
        },
        {
          "internalType": "uint256",
          "name": "amount",
          "type": "uint256"
        },
        {
          "internalType": "uint256",
          "name": "timestamp",
          "type": "uint256"
        }
      ],
      "stateMutability": "view",
      "type": "function"
    },
    {
      "inputs": [],
      "name": "expiresInDays",
      "outputs": [
        {
          "internalType": "uint256",
          "name": "",
          "type": "uint256"
        }
      ],
      "stateMutability": "view",
      "type": "function"
    },
    {
      "inputs": [],
      "name": "goalAmount",
      "outputs": [
        {
          "internalType": "uint256",
          "name": "",
          "type": "uint256"
        }
      ],
      "stateMutability": "view",
      "type": "function"
    },
    {
      "inputs": [],
      "name": "imageURL",
      "outputs": [
        {
          "internalType": "string",
          "name": "",
          "type": "string"
        }
      ],
      "stateMutability": "view",
      "type": "function"
    },
    {
      "inputs": [],
      "name": "name",
      "outputs": [
        {
          "internalType": "string",
          "name": "",
          "type": "string"
        }
      ],
      "stateMutability": "view",
      "type": "function"
    },
    {
      "inputs": [],
      "name": "numberOfDonations",
      "outputs": [
        {
          "internalType": "uint256",
          "name": "",
          "type": "uint256"
        }
      ],
      "stateMutability": "view",
      "type": "function"
    },
    {
      "inputs": [],
      "name": "owner",
      "outputs": [
        {
          "internalType": "address",
          "name": "",
          "type": "address"
        }
      ],
      "stateMutability": "view",
      "type": "function"
    },
    {
      "inputs": [],
      "name": "refundPeriodInDays",
      "outputs": [
        {
          "internalType": "uint256",
          "name": "",
          "type": "uint256"
        }
      ],
      "stateMutability": "view",
      "type": "function"
    },
    {
      "inputs": [],
      "name": "renounceOwnership",
      "outputs": [],
      "stateMutability": "nonpayable",
      "type": "function"
    },
    {
      "inputs": [],
      "name": "totalAmountRaised",
      "outputs": [
        {
          "internalType": "uint256",
          "name": "",
          "type": "uint256"
        }
      ],
      "stateMutability": "view",
      "type": "function"
    },
    {
      "inputs": [
        {
          "internalType": "address",
          "name": "newOwner",
          "type": "address"
        }
      ],
      "name": "transferOwnership",
      "outputs": [],
      "stateMutability": "nonpayable",
      "type": "function"
    },
    {
      "inputs": [
        {
          "internalType": "address payable",
          "name": "_beneficiary",
          "type": "address"
        }
      ],
      "name": "setBeneficiary",
      "outputs": [],
      "stateMutability": "nonpayable",
      "type": "function"
    },
    {
      "inputs": [
        {
          "internalType": "address",
          "name": "_donor",
          "type": "address"
        },
        {
          "internalType": "uint256",
          "name": "_amount",
          "type": "uint256"
        }
      ],
      "name": "donate",
      "outputs": [],
      "stateMutability": "payable",
      "type": "function"
    },
    {
      "inputs": [
        {
          "internalType": "address payable",
          "name": "_donor",
          "type": "address"
        }
      ],
      "name": "getRefund",
      "outputs": [],
      "stateMutability": "nonpayable",
      "type": "function"
    },
    {
      "inputs": [],
      "name": "withdraw",
      "outputs": [],
      "stateMutability": "nonpayable",
      "type": "function"
    }
  ],
  "bytecode": "0x60806040523480156200001157600080fd5b506040516200214e3803806200214e833981810160405281019062000037919062000536565b620000576200004b6200013860201b60201c565b6200014060201b60201c565b88600290805190602001906200006f92919062000204565b5087600390805190602001906200008892919062000204565b508660049080519060200190620000a192919062000204565b508560059080519060200190620000ba92919062000204565b5081600960006101000a81548173ffffffffffffffffffffffffffffffffffffffff021916908373ffffffffffffffffffffffffffffffffffffffff16021790555084600681905550836007819055508260088190555042600a8190555062000129816200014060201b60201c565b505050505050505050620006f5565b600033905090565b60008060009054906101000a900473ffffffffffffffffffffffffffffffffffffffff169050816000806101000a81548173ffffffffffffffffffffffffffffffffffffffff021916908373ffffffffffffffffffffffffffffffffffffffff1602179055508173ffffffffffffffffffffffffffffffffffffffff168173ffffffffffffffffffffffffffffffffffffffff167f8be0079c531659141344cd1fd0a4f28419497f9722a3daafe3b4186f6b6457e060405160405180910390a35050565b8280546200021290620006c0565b90600052602060002090601f01602090048101928262000236576000855562000282565b82601f106200025157805160ff191683800117855562000282565b8280016001018555821562000282579182015b828111156200028157825182559160200191906001019062000264565b5b50905062000291919062000295565b5090565b5b80821115620002b057600081600090555060010162000296565b5090565b6000604051905090565b600080fd5b600080fd5b600080fd5b600080fd5b6000601f19601f8301169050919050565b7f4e487b7100000000000000000000000000000000000000000000000000000000600052604160045260246000fd5b6200031d82620002d2565b810181811067ffffffffffffffff821117156200033f576200033e620002e3565b5b80604052505050565b600062000354620002b4565b905062000362828262000312565b919050565b600067ffffffffffffffff821115620003855762000384620002e3565b5b6200039082620002d2565b9050602081019050919050565b60005b83811015620003bd578082015181840152602081019050620003a0565b83811115620003cd576000848401525b50505050565b6000620003ea620003e48462000367565b62000348565b905082815260208101848484011115620004095762000408620002cd565b5b620004168482856200039d565b509392505050565b600082601f830112620004365762000435620002c8565b5b815162000448848260208601620003d3565b91505092915050565b6000819050919050565b620004668162000451565b81146200047257600080fd5b50565b60008151905062000486816200045b565b92915050565b600073ffffffffffffffffffffffffffffffffffffffff82169050919050565b6000620004b9826200048c565b9050919050565b620004cb81620004ac565b8114620004d757600080fd5b50565b600081519050620004eb81620004c0565b92915050565b6000620004fe826200048c565b9050919050565b6200051081620004f1565b81146200051c57600080fd5b50565b600081519050620005308162000505565b92915050565b60008060008060008060008060006101208a8c0312156200055c576200055b620002be565b5b60008a015167ffffffffffffffff8111156200057d576200057c620002c3565b5b6200058b8c828d016200041e565b99505060208a015167ffffffffffffffff811115620005af57620005ae620002c3565b5b620005bd8c828d016200041e565b98505060408a015167ffffffffffffffff811115620005e157620005e0620002c3565b5b620005ef8c828d016200041e565b97505060608a015167ffffffffffffffff811115620006135762000612620002c3565b5b620006218c828d016200041e565b9650506080620006348c828d0162000475565b95505060a0620006478c828d0162000475565b94505060c06200065a8c828d0162000475565b93505060e06200066d8c828d01620004da565b925050610100620006818c828d016200051f565b9150509295985092959850929598565b7f4e487b7100000000000000000000000000000000000000000000000000000000600052602260045260246000fd5b60006002820490506001821680620006d957607f821691505b602082108103620006ef57620006ee62000691565b5b50919050565b611a4980620007056000396000f3fe6080604052600436106101145760003560e01c80637284e416116100a0578063c507557511610064578063c507557514610347578063cc6cb19a14610372578063e69d849d146103b2578063f2fde38b146103ce578063f440f65d146103f757610114565b80637284e41614610270578063823ae8011461029b5780638da5cb5b146102c6578063b6c6050f146102f1578063b90497e01461031c57610114565b80632636b945116100e75780632636b945146101c357806338af3eed146101ee5780633ccfd60b14610219578063696c58c414610230578063715018a61461025957610114565b806306fdde031461011957806313e7b33e146101445780631c31f7101461016f578063242d7dba14610198575b600080fd5b34801561012557600080fd5b5061012e610422565b60405161013b91906111e2565b60405180910390f35b34801561015057600080fd5b506101596104b0565b604051610166919061121d565b60405180910390f35b34801561017b57600080fd5b506101966004803603810190610191919061129b565b6104b6565b005b3480156101a457600080fd5b506101ad610576565b6040516101ba919061121d565b60405180910390f35b3480156101cf57600080fd5b506101d861057c565b6040516101e5919061121d565b60405180910390f35b3480156101fa57600080fd5b50610203610582565b60405161021091906112d7565b60405180910390f35b34801561022557600080fd5b5061022e6105a8565b005b34801561023c57600080fd5b506102576004803603810190610252919061129b565b610756565b005b34801561026557600080fd5b5061026e610a8f565b005b34801561027c57600080fd5b50610285610b17565b60405161029291906111e2565b60405180910390f35b3480156102a757600080fd5b506102b0610ba5565b6040516102bd919061121d565b60405180910390f35b3480156102d257600080fd5b506102db610bab565b6040516102e89190611313565b60405180910390f35b3480156102fd57600080fd5b50610306610bd4565b604051610313919061121d565b60405180910390f35b34801561032857600080fd5b50610331610bda565b60405161033e91906111e2565b60405180910390f35b34801561035357600080fd5b5061035c610c68565b60405161036991906111e2565b60405180910390f35b34801561037e57600080fd5b506103996004803603810190610394919061135a565b610cf6565b6040516103a99493929190611387565b60405180910390f35b6103cc60048036038101906103c791906113f8565b610d46565b005b3480156103da57600080fd5b506103f560048036038101906103f0919061135a565b610f80565b005b34801561040357600080fd5b5061040c611077565b604051610419919061121d565b60405180910390f35b6002805461042f90611467565b80601f016020809104026020016040519081016040528092919081815260200182805461045b90611467565b80156104a85780601f1061047d576101008083540402835291602001916104a8565b820191906000526020600020905b81548152906001019060200180831161048b57829003601f168201915b505050505081565b600a5481565b6104be61107d565b73ffffffffffffffffffffffffffffffffffffffff166104dc610bab565b73ffffffffffffffffffffffffffffffffffffffff1614610532576040517f08c379a0000000000000000000000000000000000000000000000000000000008152600401610529906114e4565b60405180910390fd5b80600960006101000a81548173ffffffffffffffffffffffffffffffffffffffff021916908373ffffffffffffffffffffffffffffffffffffffff16021790555050565b600b5481565b60065481565b600960009054906101000a900473ffffffffffffffffffffffffffffffffffffffff1681565b6105b061107d565b73ffffffffffffffffffffffffffffffffffffffff166105ce610bab565b73ffffffffffffffffffffffffffffffffffffffff1614610624576040517f08c379a000000000000000000000000000000000000000000000000000000000815260040161061b906114e4565b60405180910390fd5b60004790506000600960009054906101000a900473ffffffffffffffffffffffffffffffffffffffff1673ffffffffffffffffffffffffffffffffffffffff168260405161067190611535565b60006040518083038185875af1925050503d80600081146106ae576040519150601f19603f3d011682016040523d82523d6000602084013e6106b3565b606091505b50509050806106f7576040517f08c379a00000000000000000000000000000000000000000000000000000000081526004016106ee90611596565b60405180910390fd5b7f884edad9ce6fa2440d8a54cc123490eb96d2768479d49ff9c7366125a9424364600960009054906101000a900473ffffffffffffffffffffffffffffffffffffffff168360405161074a929190611615565b60405180910390a15050565b62015180600754610767919061166d565b600a5461077491906116c7565b42106107b5576040517f08c379a00000000000000000000000000000000000000000000000000000000081526004016107ac90611769565b60405180910390fd5b806000600160008373ffffffffffffffffffffffffffffffffffffffff1673ffffffffffffffffffffffffffffffffffffffff168152602001908152602001600020600001540361083b576040517f08c379a0000000000000000000000000000000000000000000000000000000008152600401610832906117d5565b60405180910390fd5b600160008373ffffffffffffffffffffffffffffffffffffffff1673ffffffffffffffffffffffffffffffffffffffff168152602001908152602001600020600301546201518060085461088f919061166d565b8161089a91906116c7565b42106108db576040517f08c379a00000000000000000000000000000000000000000000000000000000081526004016108d290611841565b60405180910390fd5b6000600160008573ffffffffffffffffffffffffffffffffffffffff1673ffffffffffffffffffffffffffffffffffffffff16815260200190815260200160002060020154905060008473ffffffffffffffffffffffffffffffffffffffff168260405161094890611535565b60006040518083038185875af1925050503d8060008114610985576040519150601f19603f3d011682016040523d82523d6000602084013e61098a565b606091505b50509050806109ce576040517f08c379a00000000000000000000000000000000000000000000000000000000081526004016109c5906118ad565b60405180910390fd5b7fe3f8f3d12883a82a6719d9abdecb63746f22f15debeef9703c9acf75103baaaf85836040516109ff929190611615565b60405180910390a1600160008673ffffffffffffffffffffffffffffffffffffffff1673ffffffffffffffffffffffffffffffffffffffff1681526020019081526020016000206000808201600090556001820160006101000a81549073ffffffffffffffffffffffffffffffffffffffff02191690556002820160009055600382016000905550505050505050565b610a9761107d565b73ffffffffffffffffffffffffffffffffffffffff16610ab5610bab565b73ffffffffffffffffffffffffffffffffffffffff1614610b0b576040517f08c379a0000000000000000000000000000000000000000000000000000000008152600401610b02906114e4565b60405180910390fd5b610b156000611085565b565b60048054610b2490611467565b80601f0160208091040260200160405190810160405280929190818152602001828054610b5090611467565b8015610b9d5780601f10610b7257610100808354040283529160200191610b9d565b820191906000526020600020905b815481529060010190602001808311610b8057829003601f168201915b505050505081565b60075481565b60008060009054906101000a900473ffffffffffffffffffffffffffffffffffffffff16905090565b60085481565b60038054610be790611467565b80601f0160208091040260200160405190810160405280929190818152602001828054610c1390611467565b8015610c605780601f10610c3557610100808354040283529160200191610c60565b820191906000526020600020905b815481529060010190602001808311610c4357829003601f168201915b505050505081565b60058054610c7590611467565b80601f0160208091040260200160405190810160405280929190818152602001828054610ca190611467565b8015610cee5780601f10610cc357610100808354040283529160200191610cee565b820191906000526020600020905b815481529060010190602001808311610cd157829003601f168201915b505050505081565b60016020528060005260406000206000915090508060000154908060010160009054906101000a900473ffffffffffffffffffffffffffffffffffffffff16908060020154908060030154905084565b62015180600754610d57919061166d565b600a54610d6491906116c7565b4210610da5576040517f08c379a0000000000000000000000000000000000000000000000000000000008152600401610d9c90611769565b60405180910390fd5b816000600160008373ffffffffffffffffffffffffffffffffffffffff1673ffffffffffffffffffffffffffffffffffffffff1681526020019081526020016000206000015414610e2b576040517f08c379a0000000000000000000000000000000000000000000000000000000008152600401610e2290611919565b60405180910390fd5b600c6000815480929190610e3e90611939565b919050555081600b6000828254610e5591906116c7565b925050819055506040518060800160405280600c5481526020018473ffffffffffffffffffffffffffffffffffffffff16815260200183815260200142815250600160008573ffffffffffffffffffffffffffffffffffffffff1673ffffffffffffffffffffffffffffffffffffffff1681526020019081526020016000206000820151816000015560208201518160010160006101000a81548173ffffffffffffffffffffffffffffffffffffffff021916908373ffffffffffffffffffffffffffffffffffffffff16021790555060408201518160020155606082015181600301559050507f3dbea1b4ce5f95137fdcac9b1d685825c3d70ace830df1ca5a181d3887add410600c54848442604051610f739493929190611387565b60405180910390a1505050565b610f8861107d565b73ffffffffffffffffffffffffffffffffffffffff16610fa6610bab565b73ffffffffffffffffffffffffffffffffffffffff1614610ffc576040517f08c379a0000000000000000000000000000000000000000000000000000000008152600401610ff3906114e4565b60405180910390fd5b600073ffffffffffffffffffffffffffffffffffffffff168173ffffffffffffffffffffffffffffffffffffffff160361106b576040517f08c379a0000000000000000000000000000000000000000000000000000000008152600401611062906119f3565b60405180910390fd5b61107481611085565b50565b600c5481565b600033905090565b60008060009054906101000a900473ffffffffffffffffffffffffffffffffffffffff169050816000806101000a81548173ffffffffffffffffffffffffffffffffffffffff021916908373ffffffffffffffffffffffffffffffffffffffff1602179055508173ffffffffffffffffffffffffffffffffffffffff168173ffffffffffffffffffffffffffffffffffffffff167f8be0079c531659141344cd1fd0a4f28419497f9722a3daafe3b4186f6b6457e060405160405180910390a35050565b600081519050919050565b600082825260208201905092915050565b60005b83811015611183578082015181840152602081019050611168565b83811115611192576000848401525b50505050565b6000601f19601f8301169050919050565b60006111b482611149565b6111be8185611154565b93506111ce818560208601611165565b6111d781611198565b840191505092915050565b600060208201905081810360008301526111fc81846111a9565b905092915050565b6000819050919050565b61121781611204565b82525050565b6000602082019050611232600083018461120e565b92915050565b600080fd5b600073ffffffffffffffffffffffffffffffffffffffff82169050919050565b60006112688261123d565b9050919050565b6112788161125d565b811461128357600080fd5b50565b6000813590506112958161126f565b92915050565b6000602082840312156112b1576112b0611238565b5b60006112bf84828501611286565b91505092915050565b6112d18161125d565b82525050565b60006020820190506112ec60008301846112c8565b92915050565b60006112fd8261123d565b9050919050565b61130d816112f2565b82525050565b60006020820190506113286000830184611304565b92915050565b611337816112f2565b811461134257600080fd5b50565b6000813590506113548161132e565b92915050565b6000602082840312156113705761136f611238565b5b600061137e84828501611345565b91505092915050565b600060808201905061139c600083018761120e565b6113a96020830186611304565b6113b6604083018561120e565b6113c3606083018461120e565b95945050505050565b6113d581611204565b81146113e057600080fd5b50565b6000813590506113f2816113cc565b92915050565b6000806040838503121561140f5761140e611238565b5b600061141d85828601611345565b925050602061142e858286016113e3565b9150509250929050565b7f4e487b7100000000000000000000000000000000000000000000000000000000600052602260045260246000fd5b6000600282049050600182168061147f57607f821691505b60208210810361149257611491611438565b5b50919050565b7f4f776e61626c653a2063616c6c6572206973206e6f7420746865206f776e6572600082015250565b60006114ce602083611154565b91506114d982611498565b602082019050919050565b600060208201905081810360008301526114fd816114c1565b9050919050565b600081905092915050565b50565b600061151f600083611504565b915061152a8261150f565b600082019050919050565b600061154082611512565b9150819050919050565b7f5769746864726177616c206661696c6564000000000000000000000000000000600082015250565b6000611580601183611154565b915061158b8261154a565b602082019050919050565b600060208201905081810360008301526115af81611573565b9050919050565b6000819050919050565b60006115db6115d66115d18461123d565b6115b6565b61123d565b9050919050565b60006115ed826115c0565b9050919050565b60006115ff826115e2565b9050919050565b61160f816115f4565b82525050565b600060408201905061162a6000830185611606565b611637602083018461120e565b9392505050565b7f4e487b7100000000000000000000000000000000000000000000000000000000600052601160045260246000fd5b600061167882611204565b915061168383611204565b9250817fffffffffffffffffffffffffffffffffffffffffffffffffffffffffffffffff04831182151516156116bc576116bb61163e565b5b828202905092915050565b60006116d282611204565b91506116dd83611204565b9250827fffffffffffffffffffffffffffffffffffffffffffffffffffffffffffffffff038211156117125761171161163e565b5b828201905092915050565b7f43616d706169676e206861732065787069726564000000000000000000000000600082015250565b6000611753601483611154565b915061175e8261171d565b602082019050919050565b6000602082019050818103600083015261178281611746565b9050919050565b7f446f6e6f72206861736e277420646f6e61746564000000000000000000000000600082015250565b60006117bf601483611154565b91506117ca82611789565b602082019050919050565b600060208201905081810360008301526117ee816117b2565b9050919050565b7f526566756e6420706572696f642068617320656e646564000000000000000000600082015250565b600061182b601783611154565b9150611836826117f5565b602082019050919050565b6000602082019050818103600083015261185a8161181e565b9050919050565b7f526566756e64207472616e73616374696f6e206661696c656400000000000000600082015250565b6000611897601983611154565b91506118a282611861565b602082019050919050565b600060208201905081810360008301526118c68161188a565b9050919050565b7f446f6e6f722068617320616c726561647920646f6e6174656400000000000000600082015250565b6000611903601983611154565b915061190e826118cd565b602082019050919050565b60006020820190508181036000830152611932816118f6565b9050919050565b600061194482611204565b91507fffffffffffffffffffffffffffffffffffffffffffffffffffffffffffffffff82036119765761197561163e565b5b600182019050919050565b7f4f776e61626c653a206e6577206f776e657220697320746865207a65726f206160008201527f6464726573730000000000000000000000000000000000000000000000000000602082015250565b60006119dd602683611154565b91506119e882611981565b604082019050919050565b60006020820190508181036000830152611a0c816119d0565b905091905056fea26469706673582212208ae8103a6ea3f942d709ed6ab0b8f749dd22021e175cce35c53b9fc5965c47eb64736f6c634300080e0033",
  "immutableReferences": {},
  "source": "// SPDX-License-Identifier: MIT\npragma solidity ^0.8.13;\n\nimport \"@openzeppelin/contracts/access/Ownable.sol\";\nimport \"@openzeppelin/contracts/utils/math/SafeMath.sol\";\n\ncontract Campaign is Ownable {\n    using SafeMath for uint256;\n\n    struct Donation {\n        uint256 id;\n        address sender;\n        uint256 amount;\n        uint256 timestamp;\n    }\n\n    mapping(address => Donation) public donations;\n\n    string public name;\n    string public imageURL;\n    string public description;\n    string public descriptionURL;\n    uint256 public goalAmount;\n    uint256 public expiresInDays;\n    uint256 public refundPeriodInDays;\n    address payable public beneficiary;\n    uint256 public campaignStartTime;\n    uint256 public totalAmountRaised;\n    uint256 public numberOfDonations;\n\n\n    event DonationReceived(uint256 id, address donor, uint256 amount, uint256 timestamp);\n    event RefundReceived(address donor, uint256 amount);\n    event Withdraw(address beneficiary, uint256 amount);\n\n    constructor (\n        string memory _name,\n        string memory _imageURL,\n        string memory _description,\n        string memory _descriptionURL,\n        uint256 _goalAmount,\n        uint256 _expiresInDays,\n        uint256 _refundPeriodInDays,\n        address payable _beneficiary,\n        address _custodian\n    ) {\n        name = _name;\n        imageURL = _imageURL;\n        description = _description;\n        descriptionURL = _descriptionURL;\n        beneficiary = _beneficiary;\n        goalAmount = _goalAmount;\n        expiresInDays = _expiresInDays;\n        refundPeriodInDays = _refundPeriodInDays;\n        campaignStartTime = block.timestamp;\n        _transferOwnership(_custodian);\n    }\n\n    function setBeneficiary(address payable _beneficiary) public onlyOwner {\n        beneficiary = _beneficiary;\n    } \n\n    function donate(address _donor, uint256 _amount)  public payable notExpired canDonateOnce(_donor) {\n        numberOfDonations++;\n        totalAmountRaised += _amount;\n        donations[_donor] = Donation(numberOfDonations, _donor, _amount, block.timestamp);\n        emit DonationReceived(numberOfDonations, _donor, _amount, block.timestamp);\n    }\n\n    function getRefund(address payable _donor) public notExpired hasDonated(_donor) withinRefundPeriod(donations[_donor].timestamp) {\n        uint256 _refundAmount = donations[_donor].amount;\n        (bool sent, ) = _donor.call{value: _refundAmount}(\"\");\n        require (sent, \"Refund transaction failed\");\n        emit RefundReceived(_donor, _refundAmount);\n        delete donations[_donor];\n    }\n\n    function withdraw() public onlyOwner {\n        uint256 balance = address(this).balance;\n        (bool sent, ) = beneficiary.call{value: balance}(\"\");\n        require (sent, \"Withdrawal failed\");\n        emit Withdraw(beneficiary, balance);\n    }\n\n\n    modifier notExpired {\n        require(\n            block.timestamp  < campaignStartTime +  expiresInDays * 1 days,\n            \"Campaign has expired\"\n        );\n        _;\n    }\n\n    modifier withinRefundPeriod(uint256 _donationTimestamp) {\n        require(\n            block.timestamp  < _donationTimestamp +  refundPeriodInDays * 1 days,\n            \"Refund period has ended\"\n        );\n        _;\n    }\n\n    modifier canDonateOnce(address _donor) {\n        require( \n            donations[_donor].id == 0,\n            \"Donor has already donated\"\n        );\n        _;\n    }\n\n    modifier hasDonated(address _donor) {\n        require( \n            donations[_donor].id != 0,\n            \"Donor hasn't donated\"\n        );\n        _;\n    }\n\n}",
  "sourcePath": "/Users/adityazope/Projects/fund-raiser/contracts/Campaign.sol",
  "compiler": {
    "name": "solc",
    "version": "0.8.14+commit.80d49f37.Emscripten.clang"
  },
  "schemaVersion": "3.4.6",
  "updatedAt": "2022-05-29T09:05:46.900Z",
  "devdoc": {
    "kind": "dev",
    "methods": {
      "owner()": {
        "details": "Returns the address of the current owner."
      },
      "renounceOwnership()": {
        "details": "Leaves the contract without owner. It will not be possible to call `onlyOwner` functions anymore. Can only be called by the current owner. NOTE: Renouncing ownership will leave the contract without an owner, thereby removing any functionality that is only available to the owner."
      },
      "transferOwnership(address)": {
        "details": "Transfers ownership of the contract to a new account (`newOwner`). Can only be called by the current owner."
      }
    },
    "version": 1
  },
  "userdoc": {
    "kind": "user",
    "methods": {},
    "version": 1
  }
}