{
  "contractName": "Fundraiser",
  "abi": [
    {
      "anonymous": false,
      "inputs": [
        {
          "indexed": false,
          "internalType": "contract Campaign",
          "name": "campaign",
          "type": "address"
        },
        {
          "indexed": false,
          "internalType": "address",
          "name": "owner",
          "type": "address"
        }
      ],
      "name": "CampaignCreated",
      "type": "event"
    },
    {
      "inputs": [
        {
          "internalType": "string",
          "name": "_name",
          "type": "string"
        },
        {
          "internalType": "string",
          "name": "_imageURL",
          "type": "string"
        },
        {
          "internalType": "string",
          "name": "_description",
          "type": "string"
        },
        {
          "internalType": "string",
          "name": "_descriptionURL",
          "type": "string"
        },
        {
          "internalType": "uint256",
          "name": "_goalAmount",
          "type": "uint256"
        },
        {
          "internalType": "uint256",
          "name": "_expiresIn",
          "type": "uint256"
        },
        {
          "internalType": "uint256",
          "name": "_refundPeriod",
          "type": "uint256"
        },
        {
          "internalType": "address payable",
          "name": "_beneficiary",
          "type": "address"
        }
      ],
      "name": "createCampaign",
      "outputs": [],
      "stateMutability": "nonpayable",
      "type": "function"
    },
    {
      "inputs": [],
      "name": "campaignsCount",
      "outputs": [
        {
          "internalType": "uint256",
          "name": "",
          "type": "uint256"
        }
      ],
      "stateMutability": "view",
      "type": "function"
    },
    {
      "inputs": [
        {
          "internalType": "uint256",
          "name": "limit",
          "type": "uint256"
        },
        {
          "internalType": "uint256",
          "name": "offset",
          "type": "uint256"
        }
      ],
      "name": "getCampaigns",
      "outputs": [
        {
          "internalType": "contract Campaign[]",
          "name": "res",
          "type": "address[]"
        }
      ],
      "stateMutability": "view",
      "type": "function"
    }
  ],
  "bytecode": "0x608060405234801561001057600080fd5b50612cb3806100206000396000f3fe60806040523480156200001157600080fd5b5060043610620000465760003560e01c806309051566146200004b57806344c89b651462000081578063a2f5d1e814620000a3575b600080fd5b620000696004803603810190620000639190620003c9565b620000c3565b60405162000078919062000558565b60405180910390f35b6200008b6200026a565b6040516200009a91906200058d565b60405180910390f35b620000c16004803603810190620000bb919062000751565b62000276565b005b606060008054905082106200010f576040517f08c379a000000000000000000000000000000000000000000000000000000000815260040162000106906200091d565b60405180910390fd5b6000826200011c6200026a565b6200012891906200096e565b90508381106200013957836200013b565b805b9050600a81106200014e57600a62000150565b805b90508067ffffffffffffffff8111156200016f576200016e620005c5565b5b6040519080825280602002602001820160405280156200019e5781602001602082028036833780820191505090505b50915060005b81811015620002625760008185620001bd9190620009a9565b81548110620001d157620001d062000a06565b5b9060005260206000200160009054906101000a900473ffffffffffffffffffffffffffffffffffffffff1683828151811062000212576200021162000a06565b5b602002602001019073ffffffffffffffffffffffffffffffffffffffff16908173ffffffffffffffffffffffffffffffffffffffff16815250508080620002599062000a35565b915050620001a4565b505092915050565b60008080549050905090565b60008888888888888888336040516200028f906200036c565b620002a39998979695949392919062000b3a565b604051809103906000f080158015620002c0573d6000803e3d6000fd5b5090506000819080600181540180825580915050600190039060005260206000200160009091909190916101000a81548173ffffffffffffffffffffffffffffffffffffffff021916908373ffffffffffffffffffffffffffffffffffffffff1602179055507f6056366dba45431fd6a8854ad9f2594942b02c4f2c3f6fbc329b3079b027b8b481336040516200035992919062000c06565b60405180910390a1505050505050505050565b61204a8062000c3483390190565b6000604051905090565b600080fd5b600080fd5b6000819050919050565b620003a3816200038e565b8114620003af57600080fd5b50565b600081359050620003c38162000398565b92915050565b60008060408385031215620003e357620003e262000384565b5b6000620003f385828601620003b2565b92505060206200040685828601620003b2565b9150509250929050565b600081519050919050565b600082825260208201905092915050565b6000819050602082019050919050565b600073ffffffffffffffffffffffffffffffffffffffff82169050919050565b6000819050919050565b600062000487620004816200047b846200043c565b6200045c565b6200043c565b9050919050565b60006200049b8262000466565b9050919050565b6000620004af826200048e565b9050919050565b620004c181620004a2565b82525050565b6000620004d58383620004b6565b60208301905092915050565b6000602082019050919050565b6000620004fb8262000410565b6200050781856200041b565b935062000514836200042c565b8060005b838110156200054b5781516200052f8882620004c7565b97506200053c83620004e1565b92505060018101905062000518565b5085935050505092915050565b60006020820190508181036000830152620005748184620004ee565b905092915050565b62000587816200038e565b82525050565b6000602082019050620005a460008301846200057c565b92915050565b600080fd5b600080fd5b6000601f19601f8301169050919050565b7f4e487b7100000000000000000000000000000000000000000000000000000000600052604160045260246000fd5b620005ff82620005b4565b810181811067ffffffffffffffff82111715620006215762000620620005c5565b5b80604052505050565b6000620006366200037a565b9050620006448282620005f4565b919050565b600067ffffffffffffffff821115620006675762000666620005c5565b5b6200067282620005b4565b9050602081019050919050565b82818337600083830152505050565b6000620006a56200069f8462000649565b6200062a565b905082815260208101848484011115620006c457620006c3620005af565b5b620006d18482856200067f565b509392505050565b600082601f830112620006f157620006f0620005aa565b5b8135620007038482602086016200068e565b91505092915050565b600062000719826200043c565b9050919050565b6200072b816200070c565b81146200073757600080fd5b50565b6000813590506200074b8162000720565b92915050565b600080600080600080600080610100898b03121562000775576200077462000384565b5b600089013567ffffffffffffffff81111562000796576200079562000389565b5b620007a48b828c01620006d9565b985050602089013567ffffffffffffffff811115620007c857620007c762000389565b5b620007d68b828c01620006d9565b975050604089013567ffffffffffffffff811115620007fa57620007f962000389565b5b620008088b828c01620006d9565b965050606089013567ffffffffffffffff8111156200082c576200082b62000389565b5b6200083a8b828c01620006d9565b95505060806200084d8b828c01620003b2565b94505060a0620008608b828c01620003b2565b93505060c0620008738b828c01620003b2565b92505060e0620008868b828c016200073a565b9150509295985092959890939650565b600082825260208201905092915050565b7f4f66667365742069732067726561746572207468616e20746865206e756d626560008201527f72206f662063616d706169676e73000000000000000000000000000000000000602082015250565b600062000905602e8362000896565b91506200091282620008a7565b604082019050919050565b600060208201905081810360008301526200093881620008f6565b9050919050565b7f4e487b7100000000000000000000000000000000000000000000000000000000600052601160045260246000fd5b60006200097b826200038e565b915062000988836200038e565b9250828210156200099e576200099d6200093f565b5b828203905092915050565b6000620009b6826200038e565b9150620009c3836200038e565b9250827fffffffffffffffffffffffffffffffffffffffffffffffffffffffffffffffff03821115620009fb57620009fa6200093f565b5b828201905092915050565b7f4e487b7100000000000000000000000000000000000000000000000000000000600052603260045260246000fd5b600062000a42826200038e565b91507fffffffffffffffffffffffffffffffffffffffffffffffffffffffffffffffff820362000a775762000a766200093f565b5b600182019050919050565b600081519050919050565b60005b8381101562000aad57808201518184015260208101905062000a90565b8381111562000abd576000848401525b50505050565b600062000ad08262000a82565b62000adc818562000896565b935062000aee81856020860162000a8d565b62000af981620005b4565b840191505092915050565b62000b0f816200070c565b82525050565b600062000b22826200043c565b9050919050565b62000b348162000b15565b82525050565b600061012082019050818103600083015262000b57818c62000ac3565b9050818103602083015262000b6d818b62000ac3565b9050818103604083015262000b83818a62000ac3565b9050818103606083015262000b99818962000ac3565b905062000baa60808301886200057c565b62000bb960a08301876200057c565b62000bc860c08301866200057c565b62000bd760e083018562000b04565b62000be761010083018462000b29565b9a9950505050505050505050565b62000c0081620004a2565b82525050565b600060408201905062000c1d600083018562000bf5565b62000c2c602083018462000b29565b939250505056fe60806040523480156200001157600080fd5b506040516200204a3803806200204a833981810160405281019062000037919062000536565b620000576200004b6200013860201b60201c565b6200014060201b60201c565b88600290805190602001906200006f92919062000204565b5087600390805190602001906200008892919062000204565b508660049080519060200190620000a192919062000204565b508560059080519060200190620000ba92919062000204565b5081600960006101000a81548173ffffffffffffffffffffffffffffffffffffffff021916908373ffffffffffffffffffffffffffffffffffffffff16021790555084600681905550836007819055508260088190555042600a8190555062000129816200014060201b60201c565b505050505050505050620006f5565b600033905090565b60008060009054906101000a900473ffffffffffffffffffffffffffffffffffffffff169050816000806101000a81548173ffffffffffffffffffffffffffffffffffffffff021916908373ffffffffffffffffffffffffffffffffffffffff1602179055508173ffffffffffffffffffffffffffffffffffffffff168173ffffffffffffffffffffffffffffffffffffffff167f8be0079c531659141344cd1fd0a4f28419497f9722a3daafe3b4186f6b6457e060405160405180910390a35050565b8280546200021290620006c0565b90600052602060002090601f01602090048101928262000236576000855562000282565b82601f106200025157805160ff191683800117855562000282565b8280016001018555821562000282579182015b828111156200028157825182559160200191906001019062000264565b5b50905062000291919062000295565b5090565b5b80821115620002b057600081600090555060010162000296565b5090565b6000604051905090565b600080fd5b600080fd5b600080fd5b600080fd5b6000601f19601f8301169050919050565b7f4e487b7100000000000000000000000000000000000000000000000000000000600052604160045260246000fd5b6200031d82620002d2565b810181811067ffffffffffffffff821117156200033f576200033e620002e3565b5b80604052505050565b600062000354620002b4565b905062000362828262000312565b919050565b600067ffffffffffffffff821115620003855762000384620002e3565b5b6200039082620002d2565b9050602081019050919050565b60005b83811015620003bd578082015181840152602081019050620003a0565b83811115620003cd576000848401525b50505050565b6000620003ea620003e48462000367565b62000348565b905082815260208101848484011115620004095762000408620002cd565b5b620004168482856200039d565b509392505050565b600082601f830112620004365762000435620002c8565b5b815162000448848260208601620003d3565b91505092915050565b6000819050919050565b620004668162000451565b81146200047257600080fd5b50565b60008151905062000486816200045b565b92915050565b600073ffffffffffffffffffffffffffffffffffffffff82169050919050565b6000620004b9826200048c565b9050919050565b620004cb81620004ac565b8114620004d757600080fd5b50565b600081519050620004eb81620004c0565b92915050565b6000620004fe826200048c565b9050919050565b6200051081620004f1565b81146200051c57600080fd5b50565b600081519050620005308162000505565b92915050565b60008060008060008060008060006101208a8c0312156200055c576200055b620002be565b5b60008a015167ffffffffffffffff8111156200057d576200057c620002c3565b5b6200058b8c828d016200041e565b99505060208a015167ffffffffffffffff811115620005af57620005ae620002c3565b5b620005bd8c828d016200041e565b98505060408a015167ffffffffffffffff811115620005e157620005e0620002c3565b5b620005ef8c828d016200041e565b97505060608a015167ffffffffffffffff811115620006135762000612620002c3565b5b620006218c828d016200041e565b9650506080620006348c828d0162000475565b95505060a0620006478c828d0162000475565b94505060c06200065a8c828d0162000475565b93505060e06200066d8c828d01620004da565b925050610100620006818c828d016200051f565b9150509295985092959850929598565b7f4e487b7100000000000000000000000000000000000000000000000000000000600052602260045260246000fd5b60006002820490506001821680620006d957607f821691505b602082108103620006ef57620006ee62000691565b5b50919050565b61194580620007056000396000f3fe6080604052600436106101145760003560e01c8063715018a6116100a0578063c507557511610064578063c507557514610347578063cc6cb19a14610372578063ed88c68e146103b2578063f2fde38b146103bc578063f440f65d146103e557610114565b8063715018a6146102845780637284e4161461029b5780638da5cb5b146102c6578063a6a3b5b4146102f1578063b90497e01461031c57610114565b8063242d7dba116100e7578063242d7dba146101c35780632636b945146101ee57806338af3eed146102195780633ccfd60b14610244578063696c58c41461025b57610114565b806306fdde03146101195780630c5fe27c1461014457806313e7b33e1461016f5780631c31f7101461019a575b600080fd5b34801561012557600080fd5b5061012e610410565b60405161013b91906111a4565b60405180910390f35b34801561015057600080fd5b5061015961049e565b60405161016691906111df565b60405180910390f35b34801561017b57600080fd5b506101846104a4565b60405161019191906111df565b60405180910390f35b3480156101a657600080fd5b506101c160048036038101906101bc919061125d565b6104aa565b005b3480156101cf57600080fd5b506101d861056a565b6040516101e591906111df565b60405180910390f35b3480156101fa57600080fd5b50610203610570565b60405161021091906111df565b60405180910390f35b34801561022557600080fd5b5061022e610576565b60405161023b9190611299565b60405180910390f35b34801561025057600080fd5b5061025961059c565b005b34801561026757600080fd5b50610282600480360381019061027d919061125d565b61074a565b005b34801561029057600080fd5b50610299610a67565b005b3480156102a757600080fd5b506102b0610aef565b6040516102bd91906111a4565b60405180910390f35b3480156102d257600080fd5b506102db610b7d565b6040516102e891906112d5565b60405180910390f35b3480156102fd57600080fd5b50610306610ba6565b60405161031391906111df565b60405180910390f35b34801561032857600080fd5b50610331610bac565b60405161033e91906111a4565b60405180910390f35b34801561035357600080fd5b5061035c610c3a565b60405161036991906111a4565b60405180910390f35b34801561037e57600080fd5b506103996004803603810190610394919061131c565b610cc8565b6040516103a99493929190611349565b60405180910390f35b6103ba610d18565b005b3480156103c857600080fd5b506103e360048036038101906103de919061131c565b610f42565b005b3480156103f157600080fd5b506103fa611039565b60405161040791906111df565b60405180910390f35b6002805461041d906113bd565b80601f0160208091040260200160405190810160405280929190818152602001828054610449906113bd565b80156104965780601f1061046b57610100808354040283529160200191610496565b820191906000526020600020905b81548152906001019060200180831161047957829003601f168201915b505050505081565b60075481565b600a5481565b6104b261103f565b73ffffffffffffffffffffffffffffffffffffffff166104d0610b7d565b73ffffffffffffffffffffffffffffffffffffffff1614610526576040517f08c379a000000000000000000000000000000000000000000000000000000000815260040161051d9061143a565b60405180910390fd5b80600960006101000a81548173ffffffffffffffffffffffffffffffffffffffff021916908373ffffffffffffffffffffffffffffffffffffffff16021790555050565b600b5481565b60065481565b600960009054906101000a900473ffffffffffffffffffffffffffffffffffffffff1681565b6105a461103f565b73ffffffffffffffffffffffffffffffffffffffff166105c2610b7d565b73ffffffffffffffffffffffffffffffffffffffff1614610618576040517f08c379a000000000000000000000000000000000000000000000000000000000815260040161060f9061143a565b60405180910390fd5b60004790506000600960009054906101000a900473ffffffffffffffffffffffffffffffffffffffff1673ffffffffffffffffffffffffffffffffffffffff16826040516106659061148b565b60006040518083038185875af1925050503d80600081146106a2576040519150601f19603f3d011682016040523d82523d6000602084013e6106a7565b606091505b50509050806106eb576040517f08c379a00000000000000000000000000000000000000000000000000000000081526004016106e2906114ec565b60405180910390fd5b7f884edad9ce6fa2440d8a54cc123490eb96d2768479d49ff9c7366125a9424364600960009054906101000a900473ffffffffffffffffffffffffffffffffffffffff168360405161073e92919061156b565b60405180910390a15050565b600754600a5461075a91906115c3565b421061079b576040517f08c379a000000000000000000000000000000000000000000000000000000000815260040161079290611665565b60405180910390fd5b806000600160008373ffffffffffffffffffffffffffffffffffffffff1673ffffffffffffffffffffffffffffffffffffffff1681526020019081526020016000206000015403610821576040517f08c379a0000000000000000000000000000000000000000000000000000000008152600401610818906116d1565b60405180910390fd5b600160008373ffffffffffffffffffffffffffffffffffffffff1673ffffffffffffffffffffffffffffffffffffffff168152602001908152602001600020600301546008548161087291906115c3565b42106108b3576040517f08c379a00000000000000000000000000000000000000000000000000000000081526004016108aa9061173d565b60405180910390fd5b6000600160008573ffffffffffffffffffffffffffffffffffffffff1673ffffffffffffffffffffffffffffffffffffffff16815260200190815260200160002060020154905060008473ffffffffffffffffffffffffffffffffffffffff16826040516109209061148b565b60006040518083038185875af1925050503d806000811461095d576040519150601f19603f3d011682016040523d82523d6000602084013e610962565b606091505b50509050806109a6576040517f08c379a000000000000000000000000000000000000000000000000000000000815260040161099d906117a9565b60405180910390fd5b7fe3f8f3d12883a82a6719d9abdecb63746f22f15debeef9703c9acf75103baaaf85836040516109d792919061156b565b60405180910390a1600160008673ffffffffffffffffffffffffffffffffffffffff1673ffffffffffffffffffffffffffffffffffffffff1681526020019081526020016000206000808201600090556001820160006101000a81549073ffffffffffffffffffffffffffffffffffffffff02191690556002820160009055600382016000905550505050505050565b610a6f61103f565b73ffffffffffffffffffffffffffffffffffffffff16610a8d610b7d565b73ffffffffffffffffffffffffffffffffffffffff1614610ae3576040517f08c379a0000000000000000000000000000000000000000000000000000000008152600401610ada9061143a565b60405180910390fd5b610aed6000611047565b565b60048054610afc906113bd565b80601f0160208091040260200160405190810160405280929190818152602001828054610b28906113bd565b8015610b755780601f10610b4a57610100808354040283529160200191610b75565b820191906000526020600020905b815481529060010190602001808311610b5857829003601f168201915b505050505081565b60008060009054906101000a900473ffffffffffffffffffffffffffffffffffffffff16905090565b60085481565b60038054610bb9906113bd565b80601f0160208091040260200160405190810160405280929190818152602001828054610be5906113bd565b8015610c325780601f10610c0757610100808354040283529160200191610c32565b820191906000526020600020905b815481529060010190602001808311610c1557829003601f168201915b505050505081565b60058054610c47906113bd565b80601f0160208091040260200160405190810160405280929190818152602001828054610c73906113bd565b8015610cc05780601f10610c9557610100808354040283529160200191610cc0565b820191906000526020600020905b815481529060010190602001808311610ca357829003601f168201915b505050505081565b60016020528060005260406000206000915090508060000154908060010160009054906101000a900473ffffffffffffffffffffffffffffffffffffffff16908060020154908060030154905084565b600754600a54610d2891906115c3565b4210610d69576040517f08c379a0000000000000000000000000000000000000000000000000000000008152600401610d6090611665565b60405180910390fd5b336000600160008373ffffffffffffffffffffffffffffffffffffffff1673ffffffffffffffffffffffffffffffffffffffff1681526020019081526020016000206000015414610def576040517f08c379a0000000000000000000000000000000000000000000000000000000008152600401610de690611815565b60405180910390fd5b600c6000815480929190610e0290611835565b919050555034600b6000828254610e1991906115c3565b925050819055506040518060800160405280600c5481526020013373ffffffffffffffffffffffffffffffffffffffff16815260200134815260200142815250600160003373ffffffffffffffffffffffffffffffffffffffff1673ffffffffffffffffffffffffffffffffffffffff1681526020019081526020016000206000820151816000015560208201518160010160006101000a81548173ffffffffffffffffffffffffffffffffffffffff021916908373ffffffffffffffffffffffffffffffffffffffff16021790555060408201518160020155606082015181600301559050507f3dbea1b4ce5f95137fdcac9b1d685825c3d70ace830df1ca5a181d3887add410600c54333442604051610f379493929190611349565b60405180910390a150565b610f4a61103f565b73ffffffffffffffffffffffffffffffffffffffff16610f68610b7d565b73ffffffffffffffffffffffffffffffffffffffff1614610fbe576040517f08c379a0000000000000000000000000000000000000000000000000000000008152600401610fb59061143a565b60405180910390fd5b600073ffffffffffffffffffffffffffffffffffffffff168173ffffffffffffffffffffffffffffffffffffffff160361102d576040517f08c379a0000000000000000000000000000000000000000000000000000000008152600401611024906118ef565b60405180910390fd5b61103681611047565b50565b600c5481565b600033905090565b60008060009054906101000a900473ffffffffffffffffffffffffffffffffffffffff169050816000806101000a81548173ffffffffffffffffffffffffffffffffffffffff021916908373ffffffffffffffffffffffffffffffffffffffff1602179055508173ffffffffffffffffffffffffffffffffffffffff168173ffffffffffffffffffffffffffffffffffffffff167f8be0079c531659141344cd1fd0a4f28419497f9722a3daafe3b4186f6b6457e060405160405180910390a35050565b600081519050919050565b600082825260208201905092915050565b60005b8381101561114557808201518184015260208101905061112a565b83811115611154576000848401525b50505050565b6000601f19601f8301169050919050565b60006111768261110b565b6111808185611116565b9350611190818560208601611127565b6111998161115a565b840191505092915050565b600060208201905081810360008301526111be818461116b565b905092915050565b6000819050919050565b6111d9816111c6565b82525050565b60006020820190506111f460008301846111d0565b92915050565b600080fd5b600073ffffffffffffffffffffffffffffffffffffffff82169050919050565b600061122a826111ff565b9050919050565b61123a8161121f565b811461124557600080fd5b50565b60008135905061125781611231565b92915050565b600060208284031215611273576112726111fa565b5b600061128184828501611248565b91505092915050565b6112938161121f565b82525050565b60006020820190506112ae600083018461128a565b92915050565b60006112bf826111ff565b9050919050565b6112cf816112b4565b82525050565b60006020820190506112ea60008301846112c6565b92915050565b6112f9816112b4565b811461130457600080fd5b50565b600081359050611316816112f0565b92915050565b600060208284031215611332576113316111fa565b5b600061134084828501611307565b91505092915050565b600060808201905061135e60008301876111d0565b61136b60208301866112c6565b61137860408301856111d0565b61138560608301846111d0565b95945050505050565b7f4e487b7100000000000000000000000000000000000000000000000000000000600052602260045260246000fd5b600060028204905060018216806113d557607f821691505b6020821081036113e8576113e761138e565b5b50919050565b7f4f776e61626c653a2063616c6c6572206973206e6f7420746865206f776e6572600082015250565b6000611424602083611116565b915061142f826113ee565b602082019050919050565b6000602082019050818103600083015261145381611417565b9050919050565b600081905092915050565b50565b600061147560008361145a565b915061148082611465565b600082019050919050565b600061149682611468565b9150819050919050565b7f5769746864726177616c206661696c6564000000000000000000000000000000600082015250565b60006114d6601183611116565b91506114e1826114a0565b602082019050919050565b60006020820190508181036000830152611505816114c9565b9050919050565b6000819050919050565b600061153161152c611527846111ff565b61150c565b6111ff565b9050919050565b600061154382611516565b9050919050565b600061155582611538565b9050919050565b6115658161154a565b82525050565b6000604082019050611580600083018561155c565b61158d60208301846111d0565b9392505050565b7f4e487b7100000000000000000000000000000000000000000000000000000000600052601160045260246000fd5b60006115ce826111c6565b91506115d9836111c6565b9250827fffffffffffffffffffffffffffffffffffffffffffffffffffffffffffffffff0382111561160e5761160d611594565b5b828201905092915050565b7f43616d706169676e206861732065787069726564000000000000000000000000600082015250565b600061164f601483611116565b915061165a82611619565b602082019050919050565b6000602082019050818103600083015261167e81611642565b9050919050565b7f446f6e6f72206861736e277420646f6e61746564000000000000000000000000600082015250565b60006116bb601483611116565b91506116c682611685565b602082019050919050565b600060208201905081810360008301526116ea816116ae565b9050919050565b7f526566756e6420706572696f642068617320656e646564000000000000000000600082015250565b6000611727601783611116565b9150611732826116f1565b602082019050919050565b600060208201905081810360008301526117568161171a565b9050919050565b7f526566756e64207472616e73616374696f6e206661696c656400000000000000600082015250565b6000611793601983611116565b915061179e8261175d565b602082019050919050565b600060208201905081810360008301526117c281611786565b9050919050565b7f446f6e6f722068617320616c726561647920646f6e6174656400000000000000600082015250565b60006117ff601983611116565b915061180a826117c9565b602082019050919050565b6000602082019050818103600083015261182e816117f2565b9050919050565b6000611840826111c6565b91507fffffffffffffffffffffffffffffffffffffffffffffffffffffffffffffffff820361187257611871611594565b5b600182019050919050565b7f4f776e61626c653a206e6577206f776e657220697320746865207a65726f206160008201527f6464726573730000000000000000000000000000000000000000000000000000602082015250565b60006118d9602683611116565b91506118e48261187d565b604082019050919050565b60006020820190508181036000830152611908816118cc565b905091905056fea264697066735822122095434458495b19840b7cd3b88084f5460a72b20fb59a355c194979c974ecb36e64736f6c634300080e0033a2646970667358221220efc101bca3c8e307eda2d9d38de42db094c78642cfdcbdc51fb1bba9a0a5399e64736f6c634300080e0033",
  "immutableReferences": {},
  "source": "// SPDX-License-Identifier: MIT\npragma solidity ^0.8.13;\nimport \"./Campaign.sol\";\n\ncontract Fundraiser {\n    Campaign[] private campaigns;\n    uint256 constant maxLimit = 10;\n\n    event CampaignCreated(Campaign campaign, address owner);\n\n    function createCampaign(\n        string memory _name,\n        string memory _imageURL,\n        string memory _description,\n        string memory _descriptionURL,\n        uint256 _goalAmount,\n        uint256 _expiresIn,\n        uint256 _refundPeriod,\n        address payable _beneficiary\n    ) public {\n        Campaign campaign = new Campaign(_name, _imageURL, _description, _descriptionURL,_goalAmount, _expiresIn, _refundPeriod, _beneficiary, msg.sender);\n        campaigns.push(campaign);\n        emit CampaignCreated(campaign, msg.sender);\n    }\n\n    function campaignsCount() public view returns (uint256) {\n        return campaigns.length;\n    }\n\n    function getCampaigns(uint256 limit, uint256 offset) public view returns (Campaign[] memory res) {\n        require(offset < campaigns.length, \"Offset is greater than the number of campaigns\");\n\n        uint256 size = campaignsCount() - offset;\n        size = size < limit ? size : limit;\n        size = size < maxLimit ? size : maxLimit;\n        res = new Campaign[](size);\n\n        for (uint256 i = 0; i < size; i++) {\n            res[i] = campaigns[offset + i];\n        }\n\n        return res;  \n    }\n\n    \n\n}",
  "sourcePath": "/Users/adityazope/Projects/fund-raiser/contracts/Fundraiser.sol",
  "compiler": {
    "name": "solc",
    "version": "0.8.14+commit.80d49f37.Emscripten.clang"
  },
  "schemaVersion": "3.4.6",
  "updatedAt": "2022-06-04T14:31:53.450Z",
  "devdoc": {
    "kind": "dev",
    "methods": {},
    "version": 1
  },
  "userdoc": {
    "kind": "user",
    "methods": {},
    "version": 1
  }
}